:100000000C94F6000C9413010C9413010C9413013E
:100010000C9413010C9413010C9413010C94130110
:100020000C9413010C9413010C9413010C94130100
:100030000C9413010C9413010C9413010C941301F0
:100040000C9413010C9413010C9413010C941301E0
:100050000C9413010C9413010C9413010C941301D0
:100060000C9413010C9413010C9413010C941301C0
:1000700000000000005C00000C000C007C287C28C4
:1000800058DC68002410480028542840000C000068
:10009000007884008478000054385400107C1000EC
:1000A00080400000101010000040000060100C00A4
:1000B00038543800487C40004864580044542C00B0
:1000C0001C107C005C5424003854240064140C0080
:1000D00068542C0048543800004800008048000054
:1000E0001028440028282800442810000454080040
:1000F00038445C00781478007C5428003844280088
:100100007C4438007C5444007C140400384474005F
:100110007C107C00447C440020403C007C106C003F
:100120007C4040007C187C0078103C00384438004B
:100130007C1408003844B8007C146800485424003B
:10014000047C04007C407C003C603C007C307C00F3
:100150006C106C000C700C0064544C00007C44006B
:100160000C106000447C00000804080080808000BF
:1001700000040800304878007C48300030484800CF
:1001800030487C00306850001078140090A8780047
:100190007C08700050744000808074007C106800FF
:1001A000447C4000781078007808700030483000B7
:1001B000F82810003048F80078100800505828003F
:1001C000083C4800384078003840380078207800F3
:1001D0004830480098A0780048685800107884009B
:1001E000007C0000847810000804080411241FBE5D
:1001F000CFEFD4E0DEBFCDBF12E0A0E0B1E0EAEF88
:10020000FEE002C005900D92A430B107D9F722E0BC
:10021000A4E0B2E001C01D92A031B207E1F70E9454
:1002200015010C947B070C9400000E94E2020E94CE
:1002300056020E9439010E943B010E945A020E940C
:10024000BF010E94EE0160E080E00E9423026FE7A0
:1002500080E00E9436028AE091E00E9447022FEF80
:1002600083ED90E3215080409040E1F700C0000012
:10027000E6CF389A0895E0910801F09109018EEADD
:100280008083E0910801F091090181EA8083E09187
:100290000801F09109018AED8083E0910801F09155
:1002A000090182E18083E0910801F091090188EC65
:1002B0008083E0910801F091090188EA8083E09150
:1002C0000801F09109018FE38083E0910801F0912A
:1002D000090185ED8083E0910801F091090180E832
:1002E0008083E0910801F091090181E88083E09129
:1002F0000801F091090180E58083E0910801F09107
:10030000090189ED8083E0910801F091090181E202
:100310008083E0910801F091090180E28083E091FF
:100320000801F091090182E08083E0910801F091D9
:1003300009018BED8083E0910801F091090180E3D0
:100340008083E0910801F09109018DEA8083E091BA
:100350000801F09109011082E0910801F091090172
:1003600084EA8083E0910801F091090186EA8083A4
:10037000E0910801F09109018FEA80830895E091EE
:100380000801F091090180E28083E0910801F09179
:10039000090182E08083E0910801F091090181E286
:1003A0008083E0910801F09109011082E091080139
:1003B000F09109018FE78083E0910801F091090134
:1003C00082E28083E0910801F09109011082E091BE
:1003D0000801F091090187E080830895CF93DF93AE
:1003E000E0910801F091090180E48083C0E0D0E051
:1003F0000E94BF01E0910801F09109018C2F806BF0
:1004000080838D2FE0910601F091070110828F5FAC
:100410008038C1F7CF5FC83059F7DF91CF91089589
:1004200024E0829FC0011124FC01E051F04080E0F3
:10043000A0910601B091070194919C938F5F319632
:100440008430B1F70895E0910801F091090192E23A
:100450009083E0910801F0910901806B8083E09125
:100460000801F0910901606B60830895E091080133
:10047000F091090191E29083E0910801F091090166
:100480008083E0910801F091090160830895CF9382
:10049000DF93EC018881882331F021960E941002BD
:1004A00089918111FBCFDF91CF91089585B7806845
:1004B00085BF0895CF92DF92EF92FF920F931F9323
:1004C000CF93DF938DE191E00E94550300E010E0AF
:1004D000C0E0D0E00F2EF4E3EF2EF1E0FF2EF02D80
:1004E0008C2F8095FE01F85E808390819817A9F08B
:1004F00090811F928F931F929F93DF93CF93FF92D0
:10050000EF920E9441030F5F1F4F8DB79EB7089671
:100510000FB6F8949EBF0FBE8DBF2196C11598E00F
:10052000D907F1F6E12CF12CC0E0D0E00F2EF4E772
:10053000CF2EF1E0DF2EF02D8C2F8095FE01F85E9E
:1005400090818917B1F090811F928F931F929F9392
:10055000DF93CF93DF92CF920E9441038FEFE81A8F
:10056000F80A8DB79EB708960FB6F8949EBF0FBED7
:100570008DBF2196C11598E0D907F1F6FF92EF9251
:100580001F930F9383EB91E09F938F930E944103FE
:100590000F900F900F900F900F900F90DF91CF91D1
:1005A0001F910F91FF90EF90DF90CF9008955D9B8A
:1005B000FECF8CB980E090E008955F9BFECF8CB1B8
:1005C00090E008958AB188618AB980B5866080BD5F
:1005D00010BC87E689B96DED72E087ED92E00E946C
:1005E000F602909305028093040208950F931F93DF
:1005F000CF93DF93EC018B01009731F46115710506
:1006000019F480E090E038C06EE070E081E090E0A6
:100610000E945405FC010097A1F380E88383011533
:10062000110571F01387028781E8838380910602A8
:1006300090910702892B21F4F0930702E0930602C0
:100640002097C9F0D187C08783818260838380919E
:10065000080290910902892B71F4F0930902E0934A
:10066000080280910A0290910B02892B21F4F093E9
:100670000B02E0930A02CF01DF91CF911F910F91FE
:100680000895A0E0B0E0E7E4F3E00C945407FE0125
:10069000359661917191AF018091080290910902A4
:1006A0000E948203E2E00C9470070F931F93CF9394
:1006B000DF93E0910802F0910902238121FF1BC022
:1006C000EC0100E010E0899160910802709109024C
:1006D000DB011896ED91FC911997882331F009956B
:1006E000892B89F30FEF1FEFEECF8AE00995892B55
:1006F00011F4C80102C08FEF9FEFDF91CF911F91DE
:100700000F910895ACE0B0E0E8E8F3E00C94440702
:100710007C016B018A01FC0117821682838181FFB3
:10072000BDC1CE0101964C01F7019381F60193FD05
:10073000859193FF81916F01882309F4ABC18532C4
:1007400039F493FD859193FF81916F01853229F4EE
:10075000B70190E00E94B406E7CF512C312C20E085
:100760002032A0F48B3269F030F4803259F08332B9
:1007700069F420612CC08D3239F0803339F4216066
:1007800026C02260246023C0286021C027FD27C026
:1007900030ED380F3A3078F426FF06C0FAE05F9E5D
:1007A000300D1124532E13C08AE0389E300D1124D1
:1007B000332E20620CC08E3221F426FD6BC12064E2
:1007C00006C08C3611F4206802C0883641F4F60168
:1007D00093FD859193FF81916F018111C1CF982F76
:1007E0009F7D9554933028F40C5F1F4FFFE3F983EE
:1007F0000DC0833631F0833771F0833509F05BC06B
:1008000022C0F801808189830E5F1F4F44244394E6
:10081000512C540115C03801F2E06F0E711CF80123
:10082000A080B18026FF03C0652D70E002C06FEF8D
:100830007FEFC5012C870E94A9062C0183012C851E
:100840002F77222E17C03801F2E06F0E711CF801CD
:10085000A080B18026FF03C0652D70E002C06FEF5D
:100860007FEFC5012C870E9497062C012C852068FC
:10087000222E830123FC1BC0832D90E048165906CD
:10088000B0F4B70180E290E00E94B4063A94F4CF4D
:10089000F50127FC859127FE81915F01B70190E06A
:1008A0000E94B40631103A94F1E04F1A51084114F5
:1008B000510471F7E5C0843611F0893639F5F80135
:1008C00027FF07C060817181828193810C5F1F4F78
:1008D00008C060817181882777FD8095982F0E5F11
:1008E0001F4F2F76B22E97FF09C090958095709577
:1008F00061957F4F8F4F9F4F2068B22E2AE030E0E6
:10090000A4010E94E606A82EA81844C0853729F441
:100910002F7EB22E2AE030E025C0F22FF97FBF2EC5
:100920008F36C1F018F4883579F0B4C0803719F0EB
:10093000883721F0AFC02F2F2061B22EB4FE0DC03A
:100940008B2D8460B82E09C024FF0AC09F2F9660AB
:10095000B92E06C028E030E005C020E130E002C03A
:1009600020E132E0F801B7FE07C060817181828129
:1009700093810C5F1F4F06C06081718180E090E021
:100980000E5F1F4FA4010E94E606A82EA818FB2D9B
:10099000FF77BF2EB6FE0BC02B2D2E7FA51450F473
:1009A000B4FE0AC0B2FC08C02B2D2E7E05C07A2CE6
:1009B0002B2D03C07A2C01C0752C24FF0DC0FE0125
:1009C000EA0DF11D8081803311F4297E09C022FFD8
:1009D00006C07394739404C0822F867809F07394D0
:1009E00023FD13C020FF06C05A2C731418F4530CB7
:1009F0005718732C731468F4B70180E290E02C87C9
:100A00000E94B40673942C85F5CF731410F4371834
:100A100001C0312C24FF12C0B70180E390E02C8785
:100A20000E94B4062C8522FF17C021FF03C088E571
:100A300090E002C088E790E0B7010CC0822F867872
:100A400059F021FD02C080E201C08BE227FD8DE25A
:100A5000B70190E00E94B406A51438F4B70180E312
:100A600090E00E94B4065A94F7CFAA94F401EA0DDC
:100A7000F11D8081B70190E00E94B406A110F5CF6E
:100A8000332009F451CEB70180E290E00E94B40611
:100A90003A94F6CFF7018681978102C08FEF9FEFDE
:100AA0002C96E2E10C9460070F931F93CF93DF9392
:100AB000869F8001879F100D969F100D1124C801FD
:100AC0000E947005EC01009729F0A80160E070E039
:100AD0000E94A206CE01DF91CF911F910F91089540
:100AE000CF93DF938230910510F482E090E0E091A3
:100AF0000E02F0910F0220E030E0A0E0B0E030976D
:100B000039F14081518148175907B8F04817590702
:100B100071F482819381109729F013969C938E93A0
:100B200012972CC090930F0280930E0227C02115BC
:100B3000310531F04217530718F0A901DB0101C05C
:100B4000EF019A01BD01DF010280F381E02DD7CFD3
:100B500021153105F9F0281B390B2430310580F4BB
:100B60008A819B816115710521F0FB01938382834A
:100B700004C090930F0280930E02FE01329644C08F
:100B8000FE01E20FF31F81939193225031093983C3
:100B900028833AC020910C0230910D02232B41F49E
:100BA000209102013091030130930D0220930C0239
:100BB00020910001309101012115310541F42DB73B
:100BC0003EB74091040150910501241B350BE09183
:100BD0000C02F0910D02E217F307A0F42E1B3F0B5D
:100BE0002817390778F0AC014E5F5F4F241735079F
:100BF00048F04E0F5F1F50930D0240930C028193FB
:100C0000919302C0E0E0F0E0CF01DF91CF91089531
:100C1000CF93DF93009709F487C0FC0132971382CA
:100C20001282C0910E02D0910F02209781F4208190
:100C30003181280F391F80910C0290910D0282178B
:100C4000930779F5F0930D02E0930C026DC0DE017D
:100C500020E030E0AE17BF0750F412964D915C9142
:100C600013979D014115510509F1DA01F3CFB383C3
:100C7000A28340815181840F951F8A179B0771F4CD
:100C80008D919C911197840F951F0296918380837B
:100C900012968D919C911397938382832115310530
:100CA00029F4F0930F02E0930E023EC0D90113968F
:100CB000FC93EE9312974D915D91A40FB51FEA1727
:100CC000FB0779F480819181840F951F0296D901E9
:100CD00011969C938E938281938113969C938E930D
:100CE0001297E0E0F0E08A819B81009719F0FE0105
:100CF000EC01F9CFCE01029628813981820F931F32
:100D000020910C0230910D022817390769F43097B1
:100D100029F410920F0210920E0202C01382128266
:100D2000D0930D02C0930C02DF91CF910895FC0186
:100D30000590615070400110D8F7809590958E0F06
:100D40009F1F0895DC0101C06D9341505040E0F7B2
:100D50000895FC016150704001900110D8F7809512
:100D600090958E0F9F1F08950F931F93CF93DF933E
:100D7000182F092FEB018B8181FD03C08FEF9FEFAF
:100D800020C082FF10C04E815F812C813D814217BF
:100D900053077CF4E881F9819F012F5F3F4F39832E
:100DA0002883108306C0E885F985812F0995892B52
:100DB00029F72E813F812F5F3F4F3F832E83812F65
:100DC000902FDF91CF911F910F910895FA01AA27DB
:100DD000283051F1203181F1E8946F936E7F6E5F7E
:100DE0007F4F8F4F9F4FAF4FB1E03ED0B4E03CD02C
:100DF000670F781F891F9A1FA11D680F791F8A1F0F
:100E0000911DA11D6A0F711D811D911DA11D20D075
:100E100009F468943F912AE0269F11243019305D2F
:100E20003193DEF6CF010895462F4770405D419320
:100E3000B3E00FD0C9F7F6CF462F4F70405D4A336D
:100E400018F0495D31FD4052419302D0A9F7EACF35
:100E5000B4E0A6959795879577956795BA95C9F764
:100E600000976105710508959B01AC010A2E069457
:100E70005795479537952795BA95C9F7620F731F10
:100E8000841F951FA01D08952F923F924F925F924D
:100E90006F927F928F929F92AF92BF92CF92DF928A
:100EA000EF92FF920F931F93CF93DF93CDB7DEB7EF
:100EB000CA1BDB0B0FB6F894DEBF0FBECDBF099483
:100EC0002A88398848885F846E847D848C849B84DA
:100ED000AA84B984C884DF80EE80FD800C811B81E8
:100EE000AA81B981CE0FD11D0FB6F894DEBF0FBE17
:0A0EF000CDBFED010895F894FFCF87
:100EFA000000100220000012001063687269737407
:100F0A006F66666572206572206B756B005374613B
:100F1A007274696E67205352414D20746573742E42
:100F2A002E2E0D005352414D206572726F72202889
:100F3A007772697465207068617365293A206578EB
:100F4A00745F72616D5B25645D203D2025303258E7
:100F5A00202873686F756C642062652025303258CA
:100F6A00290D0A005352414D206572726F72202872
:100F7A0072656164207068617365293A20657874C6
:100F8A005F72616D5B25645D203D202530325820FB
:100F9A002873686F756C6420626520253032582981
:100FAA000D0A005352414D207465737420636F6DAE
:100FBA00706C65746564207769746820256420659F
:100FCA0072726F727320696E20777269746520700D
:100FDA006861736520616E64202564206572726F92
:100FEA00727320696E20726561642070686173652E
:040FFA000D0A0000DC
:00000001FF
