S00D000067725F31332E737265637B
S11300000C9438000C9455000C9455000C94550035
S11300100C9455000C9455000C9455000C94550008
S11300200C9455000C9455000C9455000C945500F8
S11300300C9455000C9455000C9455000C945500E8
S11300400C9455000C9455000C9455000C945500D8
S11300500C9455000C9455000C9455000C945500C8
S11300600C9455000C9455000C9455000C945500B8
S113007011241FBECFEFD4E0DEBFCDBF11E0A0E05E
S1130080B1E0E4E6FBE002C005900D92AE3FB1079B
S1130090D9F722E0AEEFB1E001C01D92AA30B20759
S11300A0E1F70E9460000C94B0050C94000080936A
S11300B0011481E48A95F1F700C080910014089539
S11300C00E9417010E948B000E948F0006E011E03D
S11300D0CDE0D1E084E00E9457001F928F931F93DC
S11300E00F930E94760185E00E9457001F928F9320
S11300F0DF93CF930E9476018CEC94E00197F1F7A3
S113010000C000008DB79EB708960FB6F8949EBF46
S11301100FBE8DBFDFCF85B7806885BF0895CF92AE
S1130120DF92EF92FF920F931F93CF93DF9388E1B7
S113013091E00E948A0100E010E0C0E0D0E00F2EC0
S1130140FFE2EF2EF1E0FF2EF02D8C2F8095FE01C3
S1130150F85E808390819817A9F090811F928F9305
S11301601F929F93DF93CF93FF92EF920E947601A9
S11301700F5F1F4F8DB79EB708960FB6F8949EBFBA
S11301800FBE8DBF2196C11598E0D907F1F6E12C79
S1130190F12CC0E0D0E00F2EFFE6CF2EF1E0DF2EF1
S11301A0F02D8C2F8095FE01F85E90818917B1F0B7
S11301B090811F928F931F929F93DF93CF93DF922F
S11301C0CF920E9476018FEFE81AF80A8DB79EB796
S11301D008960FB6F8949EBF0FBE8DBF2196C11529
S11301E098E0D907F1F6FF92EF921F930F938EEAEE
S11301F091E09F938F930E9476010F900F900F9040
S11302000F900F900F90DF91CF911F910F91FF905E
S1130210EF90DF90CF9008955D9BFECF8CB980E086
S113022090E008955F9BFECF8CB190E008958AB171
S113023088618AB980B5866080BD10BC8FE189B9B8
S113024062E171E08CE091E00E942B019093FF0148
S11302508093FE0108950F931F93CF93DF93EC01D6
S11302608B01009731F46115710519F480E090E079
S113027038C06EE070E081E090E00E948903FC01E8
S11302800097A1F380E883830115110571F01387AA
S1130290028781E883838091000290910102892B77
S11302A021F4F0930102E09300022097C9F0D18772
S11302B0C0878381826083838091020290910302CC
S11302C0892B71F4F0930302E093020280910402FB
S11302D090910502892B21F4F0930502E093040226
S11302E0CF01DF91CF911F910F910895A0E0B0E06D
S11302F0ECE7F1E00C948905FE013596619171916A
S1130300AF0180910202909103020E94B701E2E0E2
S11303100C94A5050F931F93CF93DF93E0910202F2
S1130320F0910302238121FF1BC0EC0100E010E0E7
S113033089916091020270910302DB011896ED919C
S1130340FC911997882331F00995892B89F30FEFD4
S11303501FEFEECF8AE00995892B11F4C80102C082
S11303608FEF9FEFDF91CF911F910F910895ACE034
S1130370B0E0EDEBF1E00C9479057C016B018A01AE
S1130380FC0117821682838181FFBDC1CE010196D3
S11303904C01F7019381F60193FD859193FF8191BF
S11303A06F01882309F4ABC1853239F493FD85913B
S11303B093FF81916F01853229F4B70190E00E9487
S11303C0E904E7CF512C312C20E02032A0F48B3209
S11303D069F030F4803259F0833269F420612CC022
S11303E08D3239F0803339F4216026C022602460D4
S11303F023C0286021C027FD27C030ED380F3A30D4
S113040078F426FF06C0FAE05F9E300D1124532EC7
S113041013C08AE0389E300D1124332E20620CC0A4
S11304208E3221F426FD6BC1206406C08C3611F493
S1130430206802C0883641F4F60193FD859193FF4C
S113044081916F018111C1CF982F9F7D9554933075
S113045028F40C5F1F4FFFE3F9830DC0833631F09E
S1130460833771F0833509F05BC022C0F8018081C5
S113047089830E5F1F4F44244394512C540115C0AB
S11304803801F2E06F0E711CF801A080B18026FFE4
S113049003C0652D70E002C06FEF7FEFC5012C87AC
S11304A00E94DE042C0183012C852F77222E17C095
S11304B03801F2E06F0E711CF801A080B18026FFB4
S11304C003C0652D70E002C06FEF7FEFC5012C877C
S11304D00E94CC042C012C852068222E830123FC4D
S11304E01BC0832D90E048165906B0F4B70180E292
S11304F090E00E94E9043A94F4CFF50127FC859139
S113050027FE81915F01B70190E00E94E904311058
S11305103A94F1E04F1A51084114510471F7E5C0BF
S1130520843611F0893639F5F80127FF07C0608158
S11305307181828193810C5F1F4F08C0608171813A
S1130540882777FD8095982F0E5F1F4F2F76B22E48
S113055097FF09C090958095709561957F4F8F4F57
S11305609F4F2068B22E2AE030E0A4010E941B05B0
S1130570A82EA81844C0853729F42F7EB22E2AE06D
S113058030E025C0F22FF97FBF2E8F36C1F018F46A
S1130590883579F0B4C0803719F0883721F0AFC0BE
S11305A02F2F2061B22EB4FE0DC08B2D8460B82E87
S11305B009C024FF0AC09F2F9660B92E06C028E008
S11305C030E005C020E130E002C020E132E0F80173
S11305D0B7FE07C060817181828193810C5F1F4FD8
S11305E006C06081718180E090E00E5F1F4FA4011E
S11305F00E941B05A82EA818FB2DFF77BF2EB6FE60
S11306000BC02B2D2E7FA51450F4B4FE0AC0B2FCEF
S113061008C02B2D2E7E05C07A2C2B2D03C07A2CDE
S113062001C0752C24FF0DC0FE01EA0DF11D80816F
S1130630803311F4297E09C022FF06C07394739499
S113064004C0822F867809F0739423FD13C020FF21
S113065006C05A2C731418F4530C5718732C7314C3
S113066068F4B70180E290E02C870E94E904739457
S11306702C85F5CF731410F4371801C0312C24FFE6
S113068012C0B70180E390E02C870E94E9042C8516
S113069022FF17C021FF03C088E590E002C088E76D
S11306A090E0B7010CC0822F867859F021FD02C07A
S11306B080E201C08BE227FD8DE2B70190E00E9449
S11306C0E904A51438F4B70180E390E00E94E9043A
S11306D05A94F7CFAA94F401EA0DF11D8081B70171
S11306E090E00E94E904A110F5CF332009F451CE23
S11306F0B70180E290E00E94E9043A94F6CFF70152
S11307008681978102C08FEF9FEF2C96E2E10C94D3
S113071095050F931F93CF93DF93869F8001879F47
S1130720100D969F100D1124C8010E94A503EC0121
S1130730009729F0A80160E070E00E94D704CE0180
S1130740DF91CF911F910F910895CF93DF93823062
S1130750910510F482E090E0E0910802F091090222
S113076020E030E0A0E0B0E0309739F140815181E1
S113077048175907B8F04817590771F482819381D3
S1130780109729F013969C938E9312972CC09093F4
S113079009028093080227C02115310531F0421760
S11307A0530718F0A901DB0101C0EF019A01BD0153
S11307B0DF010280F381E02DD7CF21153105F9F057
S11307C0281B390B2430310580F48A819B81611503
S11307D0710521F0FB019383828304C09093090285
S11307E080930802FE01329644C0FE01E20FF31F1B
S11307F08193919322503109398328833AC02091FF
S1130800060230910702232B41F42091020130911A
S113081003013093070220930602209100013091D6
S113082001012115310541F42DB73EB74091040172
S113083050910501241B350BE0910602F09107024B
S1130840E217F307A0F42E1B3F0B2817390778F0A3
S1130850AC014E5F5F4F2417350748F04E0F5F1F02
S113086050930702409306028193919302C0E0E003
S1130870F0E0CF01DF91CF910895CF93DF930097FC
S113088009F487C0FC01329713821282C0910802D6
S1130890D0910902209781F420813181280F391FDA
S11308A080910602909107028217930779F5F093DD
S11308B00702E09306026DC0DE0120E030E0AE17CF
S11308C0BF0750F412964D915C9113979D01411509
S11308D0510509F1DA01F3CFB383A2834081518139
S11308E0840F951F8A179B0771F48D919C91119722
S11308F0840F951F02969183808312968D919C910B
S11309001397938382832115310529F4F093090207
S1130910E09308023EC0D9011396FC93EE9312971C
S11309204D915D91A40FB51FEA17FB0779F48081FF
S11309309181840F951F0296D90111969C938E93F1
S11309408281938113969C938E931297E0E0F0E05A
S11309508A819B81009719F0FE01EC01F9CFCE0149
S1130960029628813981820F931F209106023091CB
S113097007022817390769F4309729F410920902FD
S11309801092080202C013821282D0930702C0930D
S11309900602DF91CF910895FC01059061507040EB
S11309A00110D8F7809590958E0F9F1F0895DC0154
S11309B001C06D9341505040E0F70895FC0161502F
S11309C0704001900110D8F7809590958E0F9F1F6D
S11309D008950F931F93CF93DF93182F092FEB01E3
S11309E08B8181FD03C08FEF9FEF20C082FF10C079
S11309F04E815F812C813D81421753077CF4E8814D
S1130A00F9819F012F5F3F4F39832883108306C0EC
S1130A10E885F985812F0995892B29F72E813F8156
S1130A202F5F3F4F3F832E83812F902FDF91CF91F4
S1130A301F910F910895FA01AA27283051F120310E
S1130A4081F1E8946F936E7F6E5F7F4F8F4F9F4F5E
S1130A50AF4FB1E03ED0B4E03CD0670F781F891FA0
S1130A609A1FA11D680F791F8A1F911DA11D6A0F6E
S1130A70711D811D911DA11D20D009F468943F9121
S1130A802AE0269F11243019305D3193DEF6CF0120
S1130A900895462F4770405D4193B3E00FD0C9F7E6
S1130AA0F6CF462F4F70405D4A3318F0495D31FD53
S1130AB04052419302D0A9F7EACFB4E0A6959795A6
S1130AC0879577956795BA95C9F70097610571057C
S1130AD008959B01AC010A2E0694579547953795C6
S1130AE02795BA95C9F7620F731F841F951FA01D20
S1130AF008952F923F924F925F926F927F928F92BE
S1130B009F92AF92BF92CF92DF92EF92FF920F9398
S1130B101F93CF93DF93CDB7DEB7CA1BDB0B0FB6A2
S1130B20F894DEBF0FBECDBF09942A88398848885F
S1130B305F846E847D848C849B84AA84B984C884F5
S1130B40DF80EE80FD800C811B81AA81B981CE0FEC
S1130B50D11D0FB6F894DEBF0FBECDBFED010895D1
S1070B60F894FFCF33
S1130B6400000A022000583A2025642000202C208A
S1130B74593A202564200A005374617274696E67BB
S1130B84205352414D20746573742E2E2E0D005340
S1130B9452414D206572726F7220287772697465B0
S1130BA4207068617365293A206578745F72616D99
S1130BB45B25645D203D2025303258202873686FFE
S1130BC4756C642062652025303258290D0A00535F
S1130BD452414D206572726F7220287265616420DF
S1130BE47068617365293A206578745F72616D5B1E
S1130BF425645D203D2025303258202873686F75A4
S1130C046C642062652025303258290D0A00535241
S1130C14414D207465737420636F6D706C657465E5
S1130C24642077697468202564206572726F727316
S1130C3420696E2077726974652070686173652019
S1130C44616E64202564206572726F727320696E0C
S1110C5420726561642070686173650D0A008A
S9030000FC
