:100000000C94B4010C9468020C948E020C94D101EF
:100010000C94D1010C94D1010C94D1010C94D10118
:100020000C94D1010C94D1010C94D1010C94D10108
:100030000C94D1010C94D1010C94D1010C94D101F8
:100040000C94D1010C94D1010C94D1010C94D101E8
:100050000C94D1010C94D1010C94D1010C94D101D8
:100060000C94D1010C94D1010C94D1010C94D101C8
:10007000000000000000000000065F5F06000000B6
:100080000007070007070000147F7F147F7F14001C
:10009000242E6B6B3A120000466630180C66620024
:1000A000307A4F5D377A48000407030000000000F3
:1000B000001C3E63410000000041633E1C00000044
:1000C000082A3E1C1C3E2A0808083E3E080800007C
:1000D00000A0E06000000000080808080808000010
:1000E00000006060000000006030180C0603010092
:1000F0003E7F594D7F3E000042427F7F40400000DE
:10010000627359496F660000226349497F360000D7
:10011000181C16137F7F1000276745457D390000A6
:100120003C7E4B4979300000036371190F070000D2
:10013000367F49497F360000064F49693F1E00005F
:1001400000006C6C0000000000A0EC6C00000000DF
:10015000081C366341000000141414141414000029
:10016000004163361C080000020351590F060000CD
:100170003E7F415D5D1F1E007C7E13137E7C000070
:10018000417F7F49497F36001C3E63414163220025
:10019000417F7F41637F1C00417F7F495D41630058
:1001A000417F7F491D0103001C3E63415173720072
:1001B0007F7F08087F7F000000417F7F41000000B3
:1001C000307040417F3F0100417F7F081C77630012
:1001D000417F7F41406070007F7F060C067F7F007B
:1001E0007F7F060C187F7F001C3E6341633E1C002E
:1001F000417F7F49090F06001E3F21717F5E00008D
:10020000417F7F19396F460026674D597B320000C8
:1002100003417F7F410300007F7F40407F7F0000DC
:100220001F3F60603F1F00007F7F3018307F7F00DE
:1002300063771C081C776300074F78784F0700002E
:100240006773594D47637100007F7F414100000093
:100250000103060C183060000041417F7F00000060
:10026000080C0603060C0800808080808080808057
:100270000000030704000000207454543C78400040
:10028000413F7F44447C3800387C44446C28000063
:10029000307848493F7F4000387C54545C18000057
:1002A000487E7F490302000098BCA4A4F87C0400A7
:1002B000417F7F08047C780000447D7D4000000081
:1002C00040C484FD7D000000417F7F10386C4400F5
:1002D00000417F7F400000007C7C0C180C7C780083
:1002E0007C7C04047C780000387C44447C3800002A
:1002F00084FCF8A4243C1800183C24A4F8FC8400D6
:10030000447C78441C180000485C54547424000059
:1003100000043E7F442400003C7C40403C7C400084
:100320001C3C60603C1C00003C7C6030607C3C00FD
:10033000446C3810386C44009CBCA0A0FC7C0000CD
:100340004C64745C4C64000008083E774141000036
:1003500000000077770000004141773E0808000068
:10036000020301030203010011241FBECFEFD4E0FA
:10037000DEBFCDBF12E0A0E0B1E0E8E8F5E102C0E9
:1003800005900D92A436B107D9F722E0A4E6B2E0B9
:1003900001C01D92A437B207E1F70E94DC010C9462
:1003A000C20A0C9400008093011481E48A95F1F74D
:1003B00000C08091001408950E9401060E947505F6
:1003C0000E94D6030E94C9020E9479050E94010280
:1003D0000E9460020E9472032FEF8FE791E021508C
:1003E00080409040E1F700C000C0F4CF84E00E945C
:1003F000D3018093670285E00E94D3018093660257
:100400000895C09A8BB780628BBF78940E94F601E2
:100410000895CF93C82F0E94D301CC2319F02091C7
:10042000670202C020916602281798F430E0482F36
:1004300050E0421B530B64E6649FC001659F900D22
:1004400011246FEF70E0621B730B0E941506862F5C
:1004500013C0821780F4622F70E0482F50E0461BD3
:10046000570B24E6249FC001259F900D11240E9464
:100470001506862F01C080E0CF910895CF9384E0C8
:100480000E940902C82F85E00E940902B09905C0A8
:100490008AB780628ABF85E011C0CE3C44F0C33386
:1004A00044F48E3C44F0833344F083E007C080E0A2
:1004B00005C081E003C082E001C084E0CF910895CF
:1004C00085B78F6085BF8BB7806C8BBF789408959C
:1004D0001F920F920FB60F9211242F933F934F93B9
:1004E0005F936F937F938F939F93AF93BF93EF939C
:1004F000FF938BE091E00E949C06FF91EF91BF91EA
:10050000AF919F918F917F916F915F914F913F91AB
:100510002F910F900FBE0F901F9018951F920F9262
:100520000FB60F9211242F933F934F935F936F93C6
:100530007F938F939F93AF93BF93EF93FF9380E14C
:1005400091E00E949C06FF91EF91BF91AF919F9126
:100550008F917F916F915F914F913F912F910F906C
:100560000FBE0F901F901895813049F018F082301F
:1005700059F0089563E083E00E94E204089564E086
:1005800084E00E94E204089565E085E00E94E204B0
:1005900008950E94890461E081E00E94BE046FE733
:1005A00080E30E94D10485E191E00E94660563E04A
:1005B00083E00E94BE046FE784E20E94D1048AE1D6
:1005C00091E00E94660563E083E00E94E20464E03B
:1005D00084E00E94BE046FE784E20E94D1048FE1B0
:1005E00091E00E94660565E085E00E94BE046FE729
:1005F00084E20E94D10487E291E00E94660508959A
:100600000E94890463E083E00E94BE046FE788E1F2
:100610000E94D1048CE291E00E94660508950E9438
:10062000890463E083E00E94BE046FE780E10E94DA
:10063000D10487E391E00E94660564E084E00E94B3
:10064000BE046FE788E00E94D10484E491E00E9438
:10065000660565E085E00E94BE046FE788E20E94BF
:10066000D10483E591E00E94660508950E94890403
:1006700062E082E00E94BE046FE784E20E94D1043F
:100680008AE591E00E94660564E084E00E94BE0471
:100690006FE780E00E94D10483E691E00E94660546
:1006A00065E085E00E94BE046FE780E20E94D1040D
:1006B00084E791E00E9466050895809106018130EB
:1006C00059F038F0823059F0833059F40E94C90251
:1006D00008950E94000308950E940F0308950E9448
:1006E00036030895CF932FEF8FE791E0215080409C
:1006F0009040E1F700C000C00E943E02C82F823047
:10070000F9F4209165022093640230E0C90101965A
:1007100063E070E00E941506809365020E94B402B7
:10072000809164028D5F682F0E9424052FEF8FE770
:1007300097E0215080409040E1F700C0000029C0C0
:100740008330F1F4809165028093640290E0029618
:1007500063E070E00E941506809365020E94B40277
:10076000809164028D5F682F0E9424052FEF8FE730
:1007700097E0215080409040E1F700C0000014C095
:10078000813039F480916502809306010E945D03F7
:100790000BC0C53049F483E08093060110926502D6
:1007A000109264020E945D03CF910895E0910901C7
:1007B000F0910A018EEA8083E0910901F0910A012B
:1007C00081EA8083E0910901F0910A018AED80833A
:1007D000E0910901F0910A0182E18083E091090131
:1007E000F0910A0188EC8083E0910901F0910A01FF
:1007F00088EA8083E0910901F0910A018FE3808308
:10080000E0910901F0910A0185ED8083E0910901F1
:10081000F0910A0180E88083E0910901F0910A01DA
:1008200081E88083E0910901F0910A0180E58083ED
:10083000E0910901F0910A0189ED8083E0910901BD
:10084000F0910A0181E28083E0910901F0910A01AF
:1008500080E28083E0910901F0910A0182E08083C7
:10086000E0910901F0910A018BED8083E09109018B
:10087000F0910A0180E38083E0910901F0910A017F
:100880008DEA8083E0910901F0910A011082E091E4
:100890000901F0910A0184EA8083E0910901F09155
:1008A0000A0186EA8083E0910901F0910A018FEA4A
:1008B00080830895E0910901F0910A0180E280832C
:1008C000E0910901F0910A0182E08083E091090141
:1008D000F0910A0181E28083E0910901F0910A011F
:1008E0001082E0910901F0910A018FE78083E09185
:1008F0000901F0910A0182E28083E0910901F091FF
:100900000A011082E0910901F0910A0187E08083D9
:100910000895CF93DF93E0910901F0910A0180E4FB
:100920008083C0E0D0E00E945A04E0910901F09178
:100930000A018C2F806B80838D2FE0910701F0914D
:10094000080110828F5F8038C1F7CF5FC83059F738
:10095000DF91CF91089528E0829FC0011124FC010E
:10096000E059F04080E0A0910701B0910801949116
:100970009C938F5F31968830B1F70895E09109011B
:10098000F0910A0192E29083E0910901F0910A014D
:10099000806B8083E0910901F0910A01606B6083B4
:1009A0000895E0910901F0910A0191E29083E091AC
:1009B0000901F0910A018083E0910901F0910A0197
:1009C00060830895E0910901F0910A019EE290830D
:1009D000E0910901F0910A0196E29083E09109010A
:1009E000F0910A011082E0910901F0910A018083DF
:1009F000E0910901F0910A0184E08083E09109010E
:100A0000F0910A016083E0910901F0910A011082DE
:100A1000E0910901F0910A018FEF8083E0910901D3
:100A2000F0910A018FE280832FEF8FE791E0215050
:100A300080409040E1F700C000C0E0910901F091D2
:100A40000A018EE280830895E0910901F0910A0184
:100A50009EE29083E0910901F0910A0197E2908370
:100A6000E0910901F0910A011082E0910901F091F1
:100A70000A018083E0910901F0910A0184E08083FA
:100A8000E0910901F0910A016083E0910901F09180
:100A90000A011082E0910901F0910A018FEF808331
:100AA000E0910901F0910A018FE280832FEF8FE737
:100AB00091E0215080409040E1F700C000C0E091FB
:100AC0000901F0910A018EE280830895CF93DF93AC
:100AD000EC018881882331F021960E94AB04899132
:100AE0008111FBCFDF91CF91089585B7806885BFD5
:100AF0000895CF92DF92EF92FF920F931F93CF93BF
:100B0000DF938DE791E00E949C0600E010E0C0E0DA
:100B1000D0E00F2EF4E9EF2EF1E0FF2EF02D8C2F18
:100B20008095FE01F85E808390819817A9F09081EE
:100B30001F928F931F929F93DF93CF93FF92EF9219
:100B40000E9488060F5F1F4F8DB79EB708960FB69D
:100B5000F8949EBF0FBE8DBF2196C11598E0D907AE
:100B6000F1F6E12CF12CC0E0D0E00F2EF4EDCF2E09
:100B7000F1E0DF2EF02D8C2F8095FE01F85E908144
:100B80008917B1F090811F928F931F929F93DF93EB
:100B9000CF93DF92CF920E9488068FEFE81AF80A6F
:100BA0008DB79EB708960FB6F8949EBF0FBE8DBF47
:100BB0002196C11598E0D907F1F6FF92EF921F93A5
:100BC0000F9383E192E09F938F930E9488060F908A
:100BD0000F900F900F900F900F90DF91CF911F917A
:100BE0000F91FF90EF90DF90CF9008955D9BFECF27
:100BF0008CB980E090E008955F9BFECF8CB190E0CF
:100C000008958AB188618AB980B5866080BD10BCBC
:100C10008FE189B96CEF75E086EF95E00E943D06A3
:100C20009093690280936802089597FB072E16F44B
:100C3000009407D077FD09D00E94290607FC05D053
:100C40003EF4909581959F4F0895709561957F4FE3
:100C50000895AA1BBB1B51E107C0AA1FBB1FA61703
:100C6000B70710F0A61BB70B881F991F5A95A9F755
:100C700080959095BC01CD0108950F931F93CF935C
:100C8000DF93EC018B01009731F46115710519F4C4
:100C900080E090E038C06EE070E081E090E00E947B
:100CA0009B08FC010097A1F380E8838301151105DF
:100CB00071F01387028781E8838380916A029091A3
:100CC0006B02892B21F4F0936B02E0936A02209768
:100CD000C9F0D187C08783818260838380916C0251
:100CE00090916D02892B71F4F0936D02E0936C0288
:100CF00080916E0290916F02892B21F4F0936F0224
:100D0000E0936E02CF01DF91CF911F910F91089573
:100D1000A0E0B0E0EEE8F6E00C949B0AFE01359608
:100D200061917191AF0180916C0290916D020E946E
:100D3000C906E2E00C94B70A0F931F93CF93DF9399
:100D4000E0916C02F0916D02238121FF1BC0EC0148
:100D500000E010E0899160916C0270916D02DB01FE
:100D60001896ED91FC911997882331F00995892BFC
:100D700089F30FEF1FEFEECF8AE00995892B11F46D
:100D8000C80102C08FEF9FEFDF91CF911F910F91AC
:100D90000895ACE0B0E0EFECF6E00C948B0A7C0137
:100DA0006B018A01FC0117821682838181FFBDC11C
:100DB000CE0101964C01F7019381F60193FD8591D7
:100DC00093FF81916F01882309F4ABC1853239F417
:100DD00093FD859193FF81916F01853229F4B701CD
:100DE00090E00E94FB09E7CF512C312C20E020320B
:100DF000A0F48B3269F030F4803259F0833269F418
:100E000020612CC08D3239F0803339F4216026C046
:100E10002260246023C0286021C027FD27C030ED58
:100E2000380F3A3078F426FF06C0FAE05F9E300DA6
:100E30001124532E13C08AE0389E300D1124332E16
:100E400020620CC08E3221F426FD6BC1206406C0E6
:100E50008C3611F4206802C0883641F4F60193FD07
:100E6000859193FF81916F018111C1CF982F9F7D53
:100E70009554933028F40C5F1F4FFFE3F9830DC0A6
:100E8000833631F0833771F0833509F05BC022C0BF
:100E9000F801808189830E5F1F4F44244394512CB5
:100EA000540115C03801F2E06F0E711CF801A080EA
:100EB000B18026FF03C0652D70E002C06FEF7FEFA9
:100EC000C5012C870E94F0092C0183012C852F7706
:100ED000222E17C03801F2E06F0E711CF801A080BD
:100EE000B18026FF03C0652D70E002C06FEF7FEF79
:100EF000C5012C870E94DE092C012C852068222E3A
:100F0000830123FC1BC0832D90E048165906B0F4E2
:100F1000B70180E290E00E94FB093A94F4CFF5011A
:100F200027FC859127FE81915F01B70190E00E9427
:100F3000FB0931103A94F1E04F1A51084114510461
:100F400071F7E5C0843611F0893639F5F80127FFCD
:100F500007C060817181828193810C5F1F4F08C03F
:100F600060817181882777FD8095982F0E5F1F4FD4
:100F70002F76B22E97FF09C0909580957095619558
:100F80007F4F8F4F9F4F2068B22E2AE030E0A401A0
:100F90000E942D0AA82EA81844C0853729F42F7E58
:100FA000B22E2AE030E025C0F22FF97FBF2E8F3617
:100FB000C1F018F4883579F0B4C0803719F088375B
:100FC00021F0AFC02F2F2061B22EB4FE0DC08B2DAB
:100FD0008460B82E09C024FF0AC09F2F9660B92EE6
:100FE00006C028E030E005C020E130E002C020E18A
:100FF00032E0F801B7FE07C0608171818281938180
:101000000C5F1F4F06C06081718180E090E00E5F31
:101010001F4FA4010E942D0AA82EA818FB2DFF77B0
:10102000BF2EB6FE0BC02B2D2E7FA51450F4B4FEA0
:101030000AC0B2FC08C02B2D2E7E05C07A2C2B2DA9
:1010400003C07A2C01C0752C24FF0DC0FE01EA0DEF
:10105000F11D8081803311F4297E09C022FF06C072
:101060007394739404C0822F867809F0739423FDDF
:1010700013C020FF06C05A2C731418F4530C5718D1
:10108000732C731468F4B70180E290E02C870E94FF
:10109000FB0973942C85F5CF731410F4371801C035
:1010A000312C24FF12C0B70180E390E02C870E940E
:1010B000FB092C8522FF17C021FF03C088E590E0C3
:1010C00002C088E790E0B7010CC0822F867859F003
:1010D00021FD02C080E201C08BE227FD8DE2B70155
:1010E00090E00E94FB09A51438F4B70180E390E07A
:1010F0000E94FB095A94F7CFAA94F401EA0DF11D5E
:101100008081B70190E00E94FB09A110F5CF332048
:1011100009F451CEB70180E290E00E94FB093A94B5
:10112000F6CFF7018681978102C08FEF9FEF2C9653
:10113000E2E10C94A70A0F931F93CF93DF93869F4E
:101140008001879F100D969F100D1124C8010E94E9
:10115000B708EC01009729F0A80160E070E00E9458
:10116000E909CE01DF91CF911F910F910895CF939F
:10117000DF938230910510F482E090E0E0917202FA
:10118000F091730220E030E0A0E0B0E0309739F158
:101190004081518148175907B8F04817590771F431
:1011A00082819381109729F013969C938E931297C6
:1011B0002CC0909373028093720227C021153105D1
:1011C00031F04217530718F0A901DB0101C0EF010C
:1011D0009A01BD01DF010280F381E02DD7CF2115F7
:1011E0003105F9F0281B390B2430310580F48A8150
:1011F0009B816115710521F0FB019383828304C0FB
:101200009093730280937202FE01329644C0FE01F5
:10121000E20FF31F81939193225031093983288380
:101220003AC02091700230917102232B41F4209139
:1012300002013091030130937102209370022091DA
:101240000001309101012115310541F42DB73EB760
:101250004091040150910501241B350BE09170026F
:10126000F0917102E217F307A0F42E1B3F0B281731
:10127000390778F0AC014E5F5F4F2417350748F00F
:101280004E0F5F1F509371024093700281939193B0
:1012900002C0E0E0F0E0CF01DF91CF910895CF935D
:1012A000DF93009709F487C0FC0132971382128202
:1012B000C0917202D0917302209781F42081318114
:1012C000280F391F80917002909171028217930745
:1012D00079F5F0937102E09370026DC0DE0120E0B9
:1012E00030E0AE17BF0750F412964D915C91139702
:1012F0009D014115510509F1DA01F3CFB383A283B2
:1013000040815181840F951F8A179B0771F48D913D
:101310009C911197840F951F02969183808312965A
:101320008D919C911397938382832115310529F424
:10133000F0937302E09372023EC0D9011396FC93BE
:10134000EE9312974D915D91A40FB51FEA17FB071D
:1013500079F480819181840F951F0296D9011196AD
:101360009C938E938281938113969C938E93129774
:10137000E0E0F0E08A819B81009719F0FE01EC012A
:10138000F9CFCE01029628813981820F931F2091D7
:101390007002309171022817390769F4309729F4E7
:1013A000109273021092720202C013821282D093C2
:1013B0007102C0937002DF91CF910895FC010590F6
:1013C000615070400110D8F7809590958E0F9F1F47
:1013D0000895DC0101C06D9341505040E0F708953D
:1013E000FC016150704001900110D8F780959095F4
:1013F0008E0F9F1F08950F931F93CF93DF93182F86
:10140000092FEB018B8181FD03C08FEF9FEF20C07F
:1014100082FF10C04E815F812C813D8142175307AE
:101420007CF4E881F9819F012F5F3F4F3983288346
:10143000108306C0E885F985812F0995892B29F746
:101440002E813F812F5F3F4F3F832E83812F902F2F
:10145000DF91CF911F910F910895FA01AA272830AB
:1014600051F1203181F1E8946F936E7F6E5F7F4F71
:101470008F4F9F4FAF4FB1E03ED0B4E03CD0670FED
:10148000781F891F9A1FA11D680F791F8A1F911D40
:10149000A11D6A0F711D811D911DA11D20D009F490
:1014A00068943F912AE0269F11243019305D3193D2
:1014B000DEF6CF010895462F4770405D4193B3E0BB
:1014C0000FD0C9F7F6CF462F4F70405D4A3318F062
:1014D000495D31FD4052419302D0A9F7EACFB4E013
:1014E000A6959795879577956795BA95C9F70097CB
:1014F0006105710508959B01AC010A2E069457956C
:10150000479537952795BA95C9F7620F731F841FC2
:10151000951FA01D08952F923F924F925F926F9258
:101520007F928F929F92AF92BF92CF92DF92EF9273
:10153000FF920F931F93CF93DF93CDB7DEB7CA1BF4
:10154000DB0B0FB6F894DEBF0FBECDBF09942A881F
:10155000398848885F846E847D848C849B84AA84C7
:10156000B984C884DF80EE80FD800C811B81AA8154
:10157000B981CE0FD11D0FB6F894DEBF0FBECDBF1F
:08158000ED010895F894FFCF7E
:10158800000074022000030012001062746E520002
:1015980062746E4C004D454E5500504C4159004FF9
:1015A8005054494F4E5300494E464F00504C4159F4
:1015B800494E472E2E2E005468657265206172656B
:1015C800206E6F006F7074696F6E73206174207481
:1015D8006865006D6F6D656E74004D6164652062AD
:1015E800793A004368726973746F6666657220524F
:1015F8004520260045726C656E642048005374616E
:101608007274696E67205352414D20746573742E4D
:101618002E2E0D005352414D206572726F72202894
:101628007772697465207068617365293A206578F6
:10163800745F72616D5B25645D203D2025303258F2
:10164800202873686F756C642062652025303258D5
:10165800290D0A005352414D206572726F7220287D
:1016680072656164207068617365293A20657874D1
:101678005F72616D5B25645D203D20253032582006
:101688002873686F756C642062652025303258298C
:101698000D0A005352414D207465737420636F6DB9
:1016A800706C6574656420776974682025642065AA
:1016B80072726F727320696E207772697465207018
:1016C8006861736520616E64202564206572726F9D
:1016D800727320696E207265616420706861736539
:0416E8000D0A0000E7
:00000001FF
