S00D000067725F31332E737265637B
S11300000C9438000C9455000C9455000C94550035
S11300100C9455000C9455000C9455000C94550008
S11300200C9455000C9455000C9455000C945500F8
S11300300C9455000C9455000C9455000C945500E8
S11300400C9455000C9455000C9455000C945500D8
S11300500C9455000C9455000C9455000C945500C8
S11300600C9455000C9455000C9455000C945500B8
S113007011241FBECFEFD4E0DEBFCDBF11E0A0E05E
S1130080B1E0ECE7F3E102C005900D92A03FB107A7
S1130090D9F721E0A0EFB1E001C01D92AC3FB20757
S11300A0E1F70E9457000C94BC090C940000CF9314
S11300B0DF93CDB7DEB76D970FB6F894DEBF0FBEF2
S11300C0CDBF0E94C5030E94E2020E9463010E9408
S11300D073010E94F2020E9413020E9450021982CC
S11300E07BC089818E5C682F84E60E94850280E053
S11300F090E0AAEFB3E48A839B83AC83BD832AE9AF
S113010039E949E954E46A817B818C819D810E94AB
S1130110D404DC01CB018E839F83A887B98720E0B8
S113012030E040E85FE36E817F81888599850E9495
S11301302B0488232CF481E090E09B878A873FC0BE
S113014020E03FEF4FE757E46E817F8188859985F2
S11301500E94D00418164CF520E030E040E251E44F
S11301606A817B818C819D810E94D404DC01CB0156
S1130170BC01CD010E942F04DC01CB019B878A873F
S11301800FC08AE790E09D878C878C859D850197B9
S1130190F1F79D878C878A859B8501979B878A8742
S11301A08A859B85009769F714C06E817F81888555
S11301B099850E942F04DC01CB019B878A878A855D
S11301C09B859F878E878E859F850197F1F79F87F3
S11301D08E8789818F5F89838981883008F481CFF4
S11301E080E090E0A0E2B1E4888B998BAA8BBB8B72
S11301F02AE939E949E954E4688979898A899B8932
S11302000E94D404DC01CB018C8B9D8BAE8BBF8B05
S113021020E030E040E85FE36C897D898E899F8926
S11302200E942B0488232CF481E090E0998F888F1E
S11302303FC020E03FEF4FE757E46C897D898E890A
S11302409F890E94D00418164CF520E030E040E26B
S113025051E4688979898A899B890E94D404DC01E4
S1130260CB01BC01CD010E942F04DC01CB01998F8D
S1130270888F0FC08AE790E09B8F8A8F8A8D9B8D31
S11302800197F1F79B8F8A8F888D998D0197998FAC
S1130290888F888D998D009769F71DCF6C897D892A
S11302A08E899F890E942F04DC01CB01998F888F4E
S11302B0888D998D9D8F8C8F8C8D9D8D0197F1F7F5
S11302C09D8F8C8F08CFCF93DF93CDB7DEB787E2B6
S11302D090E027E230E0F90120812160FC012083D5
S11302E0DF91CF910895CF93DF93CDB7DEB780919F
S11302F00601909107012EEAFC01208380910601FA
S11303009091070121EAFC012083809106019091DC
S113031007012AEDFC0120838091060190910701D9
S113032022E1FC012083809106019091070128ECD1
S1130330FC012083809106019091070128EAFC01C9
S1130340208380910601909107012FE3FC01208313
S1130350809106019091070125EDFC012083809195
S113036006019091070120E8FC0120838091060199
S11303709091070121E8FC0120838091060190916E
S1130380070120E5FC01208380910601909107017B
S113039029EDFC012083809106019091070121E25F
S11303A0FC012083809106019091070120E2FC0169
S11303B02083809106019091070122E0FC012083B3
S11303C080910601909107012BEDFC01208380911F
S11303D006019091070120E3FC012083809106012E
S11303E0909107012DEAFC012083809106019091F0
S11303F00701FC011082809106019091070124EA13
S1130400FC012083809106019091070126EAFC01FA
S1130410208380910601909107012FEAFC0120833B
S1130420DF91CF910895CF93DF93CDB7DEB780915D
S113043006019091070120E2FC01208380910601CE
S11304409091070120E1FC012083809106019091A5
S1130450070121E2FC0120838091060190910701AC
S1130460FC01108280910601909107012FE7FC01A5
S11304702083809106019091070122E2FC012083F0
S11304808091060190910701FC0110828091060180
S11304909091070127E0FC012083DF91CF9108951B
S11304A0CF93DF9300D01F92CDB7DEB780910601C2
S11304B09091070120E4FC01208319821DC00E9451
S11304C013028981806B8B838091060190910701CF
S11304D02B81FC0120831A8209C08091080190912C
S11304E00901FC0110828A818F5F8A838A818823B3
S11304F0A4F789818F5F89838981883000F30F9005
S11305000F900F90DF91CF910895CF93DF9300D098
S113051000D0CDB7DEB78B836C83809106019091B8
S1130520070121E2FC0120838091060190910701DB
S11305302B81FC01208380910601909107012B817E
S11305402F5FFC0120838C81877089838C81282F05
S113055030E08981882F90E0A901481B590BCA011A
S113056099230CF407969595879595958795959578
S113057087958A8380910601909107012A81206BD7
S1130580FC012083809108019091090120910801C8
S113059030910901F9012081622F2981422F50E015
S11305A021E030E0042E02C0220F331F0A94E2F748
S11305B0262BFC0120830F900F900F900F90DF915A
S11305C0CF910895CF93DF93CDB7DEB785E590E063
S11305D025E530E0F90120812068FC012083DF91CA
S11305E0CF910895CF93DF93CDB7DEB729970FB698
S11305F0F894DEBF0FBECDBF80E098E198878F836B
S11306001C821B821E821D828AE091E00E94960554
S11306101A82198249C08981809589872F813885FA
S113062089819A81820F931F2985FC0120832F8160
S1130630388589819A81820F931FFC019081898575
S1130640981769F18985282F30E04F815885898171
S11306509A81840F951FFC018081882F90E0432F9D
S11306604F932F93292F2F938F938A818F9389816F
S11306708F9381E291E0892F8F9381E291E08F93B0
S11306800E9482058DB79EB708960FB6F894DEBF18
S11306900FBECDBF8B819C8101969C838B83898106
S11306A09A8101969A83898389819A818115E8E0E8
S11306B09E0708F4B0CF1A82198240C089818095C0
S11306C089872F81388589819A81820F931FFC0144
S11306D090818985981769F18985282F30E04F81A9
S11306E0588589819A81840F951FFC018081882F08
S11306F090E0432F4F932F93292F2F938F938A8129
S11307008F9389818F9381E691E0892F8F9381E67E
S113071091E08F930E9482058DB79EB708960FB61D
S1130720F894DEBF0FBECDBF8D819E8101969E835E
S11307308D8389819A8101969A83898389819A819B
S11307408115E8E09E0708F4B9CF8E818F938D81DF
S11307508F938C818F938B818F9380EA91E0892F83
S11307608F9380EA91E08F930E9482050F900F90FF
S11307700F900F900F900F9029960FB6F894DEBF4C
S11307800FBECDBFDF91CF910895CF93DF93CDB747
S1130790DEB78AE290E02AE230E0F90120812861A4
S11307A0FC01208380E490E020E430E0F901208122
S11307B02660FC01208380E490E0FC01108289E241
S11307C090E02FE1FC01208362E174E081EF93E08B
S11307D00E9437059093F1018093F001DF91CF914E
S11307E00895CF93DF9300D01F92CDB7DEB78983EE
S11307F07B836A8300008BE290E0FC018081882F78
S113080090E0807299270097B1F38CE290E02981FF
S1130810FC01208380E090E00F900F900F90DF9117
S1130820CF910895CF93DF9300D0CDB7DEB79A83ED
S1130830898300008BE290E0FC0180818823D4F757
S11308408CE290E0FC018081882F90E00F900F9063
S1130850DF91CF9108952FD008F481E008957FD0DF
S113086088F09F5790F0B92F9927B751A0F0D1F095
S1130870660F771F881F991F1AF0BA95C9F712C01F
S1130880B13081F086D0B1E0089583C0672F782F0E
S11308908827B85F39F0B93FCCF38695779567958B
S11308A0B395D9F73EF490958095709561957F4FF7
S11308B08F4F9F4F0895990F0008550FAA0BE0E83A
S11308C0FEEF16161706E807F907C0F0121613060E
S11308D0E407F50798F0621B730B840B950B39F44E
S11308E00A2661F0232B242B252B21F408950A26B4
S11308F009F4A140A6958FEF811D811D089597F9F4
S11309009F6780E870E060E008959FEF80EC0895B1
S113091000240A94161617061806090608950024DA
S11309200A9412161306140605060895092E039454
S1130930000C11F4882352F0BB0F40F4BF2B11F4C8
S113094060FF04C06F5F7F4F8F4F9F4F089557FD27
S11309509058440F551F59F05F3F71F04795880F29
S113096097FB991F61F09F3F79F0879508951216C0
S113097013061406551FF2CF4695F1DF08C016166C
S113098017061806991FF1CF86957105610508941D
S11309900895E894BB2766277727CB0197F9089534
S11309A08ADF08F48FEF08950BD0C0CFB1DF28F0B1
S11309B0B6DF18F0952309F0A2CFA7CF1124EACF10
S11309C0C6DFA0F3959FD1F3950F50E0551F629FAA
S11309D0F001729FBB27F00DB11D639FAA27F00D94
S11309E0B11DAA1F649F6627B00DA11D661F829FBB
S11309F02227B00DA11D621F739FB00DA11D621FA0
S1130A00839FA00D611D221F749F3327A00D611DBC
S1130A10231F849F600D211D822F762F6A2F11249E
S1130A209F5750408AF0E1F088234AF0EE0FFF1FF1
S1130A30BB1F661F771F881F91505040A9F79E3F28
S1130A40510570F05CCFA6CF5F3FECF3983EDCF32A
S1130A50869577956795B795F795E7959F5FC1F765
S1130A60FE2B880F911D9695879597F908950F93FE
S1130A701F93CF93DF93EC018B01009731F4611541
S1130A80710519F480E090E038C06EE070E081E018
S1130A9090E00E949507FC010097A1F380E883830E
S1130AA00115110571F01387028781E88383809112
S1130AB0F2019091F301892B21F4F093F301E09377
S1130AC0F2012097C9F0D187C08783818260838334
S1130AD08091F4019091F501892B71F4F093F50163
S1130AE0E093F4018091F6019091F701892B21F4B0
S1130AF0F093F701E093F601CF01DF91CF911F91BD
S1130B000F910895A0E0B0E0E8E8F5E00C949509B1
S1130B10FE01359661917191AF018091F40190913C
S1130B20F5010E94C305E2E00C94B1090F931F93F1
S1130B30CF93DF93E091F401F091F501238121FF3C
S1130B401BC0EC0100E010E089916091F401709108
S1130B50F501DB011896ED91FC911997882331F08A
S1130B600995892B89F30FEF1FEFEECF8AE00995E2
S1130B70892B11F4C80102C08FEF9FEFDF91CF9151
S1130B801F910F910895ACE0B0E0E9ECF5E00C940E
S1130B9085097C016B018A01FC011782168283811D
S1130BA081FFBDC1CE0101964C01F7019381F6018D
S1130BB093FD859193FF81916F01882309F4ABC163
S1130BC0853239F493FD859193FF81916F018532CC
S1130BD029F4B70190E00E94F508E7CF512C312C9D
S1130BE020E02032A0F48B3269F030F4803259F0E6
S1130BF0833269F420612CC08D3239F0803339F4AA
S1130C00216026C02260246023C0286021C027FD03
S1130C1027C030ED380F3A3078F426FF06C0FAE0EA
S1130C205F9E300D1124532E13C08AE0389E300D80
S1130C301124332E20620CC08E3221F426FD6BC1A8
S1130C40206406C08C3611F4206802C0883641F452
S1130C50F60193FD859193FF81916F018111C1CFBD
S1130C60982F9F7D9554933028F40C5F1F4FFFE31A
S1130C70F9830DC0833631F0833771F0833509F081
S1130C805BC022C0F801808189830E5F1F4F44241A
S1130C904394512C540115C03801F2E06F0E711CBD
S1130CA0F801A080B18026FF03C0652D70E002C06A
S1130CB06FEF7FEFC5012C870E94EA082C018301A6
S1130CC02C852F77222E17C03801F2E06F0E711C8D
S1130CD0F801A080B18026FF03C0652D70E002C03A
S1130CE06FEF7FEFC5012C870E94D8082C012C855B
S1130CF02068222E830123FC1BC0832D90E048161C
S1130D005906B0F4B70180E290E00E94F5083A94E5
S1130D10F4CFF50127FC859127FE81915F01B7018E
S1130D2090E00E94F50831103A94F1E04F1A51080E
S1130D304114510471F7E5C0843611F0893639F550
S1130D40F80127FF07C060817181828193810C5F64
S1130D501F4F08C060817181882777FD8095982F87
S1130D600E5F1F4F2F76B22E97FF09C09095809586
S1130D70709561957F4F8F4F9F4F2068B22E2AE068
S1130D8030E0A4010E942709A82EA81844C0853782
S1130D9029F42F7EB22E2AE030E025C0F22FF97F0D
S1130DA0BF2E8F36C1F018F4883579F0B4C080377F
S1130DB019F0883721F0AFC02F2F2061B22EB4FE76
S1130DC00DC08B2D8460B82E09C024FF0AC09F2F4C
S1130DD09660B92E06C028E030E005C020E130E07E
S1130DE002C020E132E0F801B7FE07C060817181E2
S1130DF0828193810C5F1F4F06C06081718180E006
S1130E0090E00E5F1F4FA4010E942709A82EA81886
S1130E10FB2DFF77BF2EB6FE0BC02B2D2E7FA51406
S1130E2050F4B4FE0AC0B2FC08C02B2D2E7E05C0BF
S1130E307A2C2B2D03C07A2C01C0752C24FF0DC0F5
S1130E40FE01EA0DF11D8081803311F4297E09C071
S1130E5022FF06C07394739404C0822F867809F02D
S1130E60739423FD13C020FF06C05A2C731418F486
S1130E70530C5718732C731468F4B70180E290E094
S1130E802C870E94F50873942C85F5CF731410F405
S1130E90371801C0312C24FF12C0B70180E390E061
S1130EA02C870E94F5082C8522FF17C021FF03C060
S1130EB088E590E002C088E790E0B7010CC0822F7B
S1130EC0867859F021FD02C080E201C08BE227FD43
S1130ED08DE2B70190E00E94F508A51438F4B7013B
S1130EE080E390E00E94F5085A94F7CFAA94F401A5
S1130EF0EA0DF11D8081B70190E00E94F508A11070
S1130F00F5CF332009F451CEB70180E290E00E947E
S1130F10F5083A94F6CFF7018681978102C08FEFE6
S1130F209FEF2C96E2E10C94A1090F931F93CF93AA
S1130F30DF93869F8001879F100D969F100D1124CB
S1130F40C8010E94B107EC01009729F0A80160E0F4
S1130F5070E00E94E308CE01DF91CF911F910F91C1
S1130F600895CF93DF938230910510F482E090E0EE
S1130F70E091FA01F091FB0120E030E0A0E0B0E064
S1130F80309739F14081518148175907B8F0481713
S1130F90590771F482819381109729F013969C93D9
S1130FA08E9312972CC09093FB018093FA0127C073
S1130FB02115310531F04217530718F0A901DB015F
S1130FC001C0EF019A01BD01DF010280F381E02D30
S1130FD0D7CF21153105F9F0281B390B2430310501
S1130FE080F48A819B816115710521F0FB01938353
S1130FF0828304C09093FB018093FA01FE01329630
S113100044C0FE01E20FF31F8193919322503109F2
S1131010398328833AC02091F8013091F901232BB8
S113102041F420910201309103013093F90120939E
S1131030F80120910001309101012115310541F49D
S11310402DB73EB74091040150910501241B350B87
S1131050E091F801F091F901E217F307A0F42E1BD7
S11310603F0B2817390778F0AC014E5F5F4F241708
S1131070350748F04E0F5F1F5093F9014093F80174
S11310808193919302C0E0E0F0E0CF01DF91CF9132
S11310900895CF93DF93009709F487C0FC0132973A
S11310A013821282C091FA01D091FB01209781F43E
S11310B020813181280F391F8091F8019091F90125
S11310C08217930779F5F093F901E093F8016DC065
S11310D0DE0120E030E0AE17BF0750F412964D91C8
S11310E05C9113979D014115510509F1DA01F3CF84
S11310F0B383A28340815181840F951F8A179B0774
S113110071F48D919C911197840F951F0296918390
S1131110808312968D919C911397938382832115DA
S1131120310529F4F093FB01E093FA013EC0D901A3
S11311301396FC93EE9312974D915D91A40FB51FF6
S1131140EA17FB0779F480819181840F951F029639
S1131150D90111969C938E938281938113969C93CB
S11311608E931297E0E0F0E08A819B81009719F05A
S1131170FE01EC01F9CFCE01029628813981820F5C
S1131180931F2091F8013091F9012817390769F468
S1131190309729F41092FB011092FA0102C01382D5
S11311A01282D093F901C093F801DF91CF91089591
S11311B0FC010590615070400110D8F7809590951E
S11311C08E0F9F1F0895DC0101C06D934150504064
S11311D0E0F70895FC016150704001900110D8F7C8
S11311E0809590958E0F9F1F08950F931F93CF9313
S11311F0DF93182F092FEB018B8181FD03C08FEF43
S11312009FEF20C082FF10C04E815F812C813D8101
S1131210421753077CF4E881F9819F012F5F3F4F08
S113122039832883108306C0E885F985812F0995C1
S1131230892B29F72E813F812F5F3F4F3F832E83D8
S1131240812F902FDF91CF911F910F910895FA0173
S1131250AA27283051F1203181F1E8946F936E7FF1
S11312606E5F7F4F8F4F9F4FAF4FB1E03ED0B4E0E2
S11312703CD0670F781F891F9A1FA11D680F791F23
S11312808A1F911DA11D6A0F711D811D911DA11D34
S113129020D009F468943F912AE0269F1124301944
S11312A0305D3193DEF6CF010895462F4770405DDF
S11312B04193B3E00FD0C9F7F6CF462F4F70405D8E
S11312C04A3318F0495D31FD4052419302D0A9F7E9
S11312D0EACFB4E0A6959795879577956795BA95E3
S11312E0C9F700976105710508959B01AC010A2EA9
S11312F006945795479537952795BA95C9F7620F80
S1131300731F841F951FA01D08952F923F924F9223
S11313105F926F927F928F929F92AF92BF92CF9281
S1131320DF92EF92FF920F931F93CF93DF93CDB78A
S1131330DEB7CA1BDB0B0FB6F894DEBF0FBECDBF02
S113134009942A88398848885F846E847D848C84D3
S11313509B84AA84B984C884DF80EE80FD800C81DC
S11313601B81AA81B981CE0FD11D0FB6F894DEBFBF
S10F13700FBECDBFED010895F894FFCF2F
S113137C0000FC01200000100012537461727469A7
S113138C6E67205352414D20746573742E2E2E0DAE
S113139C005352414D206572726F72202877726926
S11313AC7465207068617365293A206578745F727E
S11313BC616D5B25645D203D2025303258202873F7
S11313CC686F756C642062652025303258290D0ACB
S11313DC005352414D206572726F72202872656100
S11313EC64207068617365293A206578745F726152
S11313FC6D5B25645D203D202530325820287368B0
S113140C6F756C642062652025303258290D0A00F2
S113141C5352414D207465737420636F6D706C6509
S113142C7465642077697468202564206572726F12
S113143C727320696E2077726974652070686173A9
S113144C6520616E64202564206572726F7273204E
S113145C696E20726561642070686173650D0A00A1
S9030000FC
